:020000040000FA
:0400000007EF00F016
:10000800018280ED00F05AEF00F0D59E90C0D9FF34
:1000180091C0DAFFDF500001926F923B92479247FE
:10002800D5509219BF0B9219D56E000120EE01F040
:100038009051D9269151DA22DF500001926F923BFC
:100048009247D5509219DF0B9219D56E000120EE18
:1000580003F09051D9269151DA22DF500001926FB6
:10006800924792479247D5509219F70B9219D56E3D
:10007800D530E832E832010B0009D8A40FD00001CE
:1000880020EE04F09051D9269151DA22DF50000178
:10009800926FD5509219F80B9219D56EF28AF184A5
:1000A800D90ED76ED90ED66ED58E12001A0EF66EF0
:1000B800010EF76E000EF86E00EE80F010EE10F0F4
:1000C8000900F5CFEEFFE550E150FAE10001936B2E
:1000D80001900192000171EF00F09350FE0B936EB6
:1000E80099EC00F095EC00F08B0E0001906F000E7B
:1000F800916F09EC00F0FFD70600F2A408D08150F8
:10010800010A8A6EE10ED76E7B0ED66EF2940192CA
:1001180011003F065B4F666D7D077F6F0000000092
:100128000007D08EF28EF28C1200000E936E120031
:020000040020DA
:08000000FFFFFFFFFFFFFFFF00
:020000040030CA
:0E000000FF021F1EFF8181FF0FC00FE00F40A7
:00000001FF
